{
  "contractName": "Beths",
  "abi": [
    {
      "constant": true,
      "inputs": [
        {
          "name": "",
          "type": "uint256"
        }
      ],
      "name": "bets",
      "outputs": [
        {
          "name": "status",
          "type": "uint8"
        },
        {
          "name": "initiator",
          "type": "address"
        },
        {
          "name": "opponent",
          "type": "address"
        },
        {
          "name": "mediator",
          "type": "address"
        },
        {
          "name": "amount",
          "type": "uint256"
        },
        {
          "name": "currency",
          "type": "address"
        },
        {
          "name": "deadline",
          "type": "uint256"
        },
        {
          "name": "initiatorOutcome",
          "type": "uint8"
        },
        {
          "name": "opponentOutcome",
          "type": "uint8"
        },
        {
          "name": "areFundsWithdrawn",
          "type": "bool"
        },
        {
          "name": "hasBeenDisputed",
          "type": "bool"
        }
      ],
      "payable": false,
      "stateMutability": "view",
      "type": "function"
    },
    {
      "constant": true,
      "inputs": [
        {
          "name": "username",
          "type": "string"
        }
      ],
      "name": "getAddressFromUsername",
      "outputs": [
        {
          "name": "",
          "type": "address"
        }
      ],
      "payable": false,
      "stateMutability": "view",
      "type": "function"
    },
    {
      "constant": true,
      "inputs": [
        {
          "name": "",
          "type": "uint256"
        },
        {
          "name": "",
          "type": "uint256"
        }
      ],
      "name": "betsToProofs",
      "outputs": [
        {
          "name": "",
          "type": "string"
        }
      ],
      "payable": false,
      "stateMutability": "view",
      "type": "function"
    },
    {
      "constant": false,
      "inputs": [],
      "name": "renounceOwnership",
      "outputs": [],
      "payable": false,
      "stateMutability": "nonpayable",
      "type": "function"
    },
    {
      "constant": true,
      "inputs": [],
      "name": "owner",
      "outputs": [
        {
          "name": "",
          "type": "address"
        }
      ],
      "payable": false,
      "stateMutability": "view",
      "type": "function"
    },
    {
      "constant": true,
      "inputs": [],
      "name": "isOwner",
      "outputs": [
        {
          "name": "",
          "type": "bool"
        }
      ],
      "payable": false,
      "stateMutability": "view",
      "type": "function"
    },
    {
      "constant": true,
      "inputs": [],
      "name": "mediatorFee",
      "outputs": [
        {
          "name": "",
          "type": "uint256"
        }
      ],
      "payable": false,
      "stateMutability": "view",
      "type": "function"
    },
    {
      "constant": false,
      "inputs": [
        {
          "name": "username",
          "type": "string"
        }
      ],
      "name": "claimUsername",
      "outputs": [],
      "payable": false,
      "stateMutability": "nonpayable",
      "type": "function"
    },
    {
      "constant": true,
      "inputs": [],
      "name": "ownerFee",
      "outputs": [
        {
          "name": "",
          "type": "uint256"
        }
      ],
      "payable": false,
      "stateMutability": "view",
      "type": "function"
    },
    {
      "constant": false,
      "inputs": [
        {
          "name": "newOwner",
          "type": "address"
        }
      ],
      "name": "transferOwnership",
      "outputs": [],
      "payable": false,
      "stateMutability": "nonpayable",
      "type": "function"
    },
    {
      "anonymous": false,
      "inputs": [
        {
          "indexed": false,
          "name": "betId",
          "type": "uint256"
        },
        {
          "indexed": true,
          "name": "initiator",
          "type": "address"
        },
        {
          "indexed": true,
          "name": "opponent",
          "type": "address"
        }
      ],
      "name": "BetCreated",
      "type": "event"
    },
    {
      "anonymous": false,
      "inputs": [
        {
          "indexed": true,
          "name": "previousOwner",
          "type": "address"
        },
        {
          "indexed": true,
          "name": "newOwner",
          "type": "address"
        }
      ],
      "name": "OwnershipTransferred",
      "type": "event"
    },
    {
      "constant": false,
      "inputs": [
        {
          "name": "opponent",
          "type": "address"
        },
        {
          "name": "mediator",
          "type": "address"
        },
        {
          "name": "amount",
          "type": "uint256"
        },
        {
          "name": "currency",
          "type": "address"
        },
        {
          "name": "deadline",
          "type": "uint256"
        }
      ],
      "name": "createBet",
      "outputs": [],
      "payable": false,
      "stateMutability": "nonpayable",
      "type": "function"
    },
    {
      "constant": false,
      "inputs": [
        {
          "name": "betId",
          "type": "uint256"
        }
      ],
      "name": "joinBet",
      "outputs": [],
      "payable": false,
      "stateMutability": "nonpayable",
      "type": "function"
    },
    {
      "constant": false,
      "inputs": [
        {
          "name": "betId",
          "type": "uint256"
        },
        {
          "name": "proposedOutcome",
          "type": "uint8"
        },
        {
          "name": "proof",
          "type": "string"
        }
      ],
      "name": "proposeOutcome",
      "outputs": [],
      "payable": false,
      "stateMutability": "nonpayable",
      "type": "function"
    },
    {
      "constant": false,
      "inputs": [
        {
          "name": "betId",
          "type": "uint256"
        }
      ],
      "name": "getFunds",
      "outputs": [],
      "payable": false,
      "stateMutability": "nonpayable",
      "type": "function"
    },
    {
      "constant": false,
      "inputs": [
        {
          "name": "betId",
          "type": "uint256"
        },
        {
          "name": "outcome",
          "type": "uint8"
        }
      ],
      "name": "solveDispute",
      "outputs": [],
      "payable": false,
      "stateMutability": "nonpayable",
      "type": "function"
    },
    {
      "constant": true,
      "inputs": [
        {
          "name": "betId",
          "type": "uint256"
        }
      ],
      "name": "getBetStatus",
      "outputs": [
        {
          "name": "status",
          "type": "uint8"
        }
      ],
      "payable": false,
      "stateMutability": "view",
      "type": "function"
    },
    {
      "constant": true,
      "inputs": [
        {
          "name": "betId",
          "type": "uint256"
        }
      ],
      "name": "getBetInfo",
      "outputs": [
        {
          "name": "",
          "type": "address"
        },
        {
          "name": "",
          "type": "address"
        },
        {
          "name": "",
          "type": "address"
        },
        {
          "name": "",
          "type": "uint256"
        },
        {
          "name": "",
          "type": "address"
        },
        {
          "name": "",
          "type": "uint256"
        }
      ],
      "payable": false,
      "stateMutability": "view",
      "type": "function"
    },
    {
      "constant": true,
      "inputs": [
        {
          "name": "betId",
          "type": "uint256"
        }
      ],
      "name": "getBetOutcome",
      "outputs": [
        {
          "name": "",
          "type": "uint8"
        },
        {
          "name": "",
          "type": "uint8"
        },
        {
          "name": "",
          "type": "bool"
        }
      ],
      "payable": false,
      "stateMutability": "view",
      "type": "function"
    },
    {
      "constant": true,
      "inputs": [
        {
          "name": "betId",
          "type": "uint256"
        }
      ],
      "name": "areFundsWithdrawn",
      "outputs": [
        {
          "name": "",
          "type": "bool"
        }
      ],
      "payable": false,
      "stateMutability": "view",
      "type": "function"
    }
  ],
  "bytecode": "0x608060408190526002600481905560055560008054600160a060020a0319163317808255600160a060020a0316917f8be0079c531659141344cd1fd0a4f28419497f9722a3daafe3b4186f6b6457e0908290a3612060806100616000396000f3fe608060405234801561001057600080fd5b50600436106101255760003560e060020a9004806379141f80116100b1578063b65b26f611610075578063b65b26f614610577578063c03ce9321461059d578063d5b2a01a146105ba578063f2fde38b146105c2578063fc07b1fe146105e857610125565b806379141f80146104685780638da5cb5b146104c95780638f32d59b146104d157806397363b40146104ed5780639f6858791461050757610125565b80633e721015116100f85780633e721015146102de5780634e82c134146102fb57806361f14f111461038757806364849ef5146103c8578063715018a61461046057610125565b80630ec4ca941461012a57806318aea0c8146101ab57806322af00fa1461020957806339fb3f45146102c1575b600080fd5b6101a96004803603606081101561014057600080fd5b81359160ff6020820135169181019060608101604082013564010000000081111561016a57600080fd5b82018360208201111561017c57600080fd5b8035906020019184600183028401116401000000008311171561019e57600080fd5b50909250905061062c565b005b6101c8600480360360208110156101c157600080fd5b5035610a7b565b604051808460028111156101d857fe5b60ff1681526020018360028111156101ec57fe5b60ff16815291151560208301525060408051918290030192509050f35b6102266004803603602081101561021f57600080fd5b5035610b11565b604051808c600481111561023657fe5b60ff168152600160a060020a03808d1660208301528b811660408301528a81166060830152608082018a9052881660a082015260c0810187905260e00185600281111561027f57fe5b60ff16815260200184600281111561029357fe5b60ff168152921515602084015250151560408083019190915251908190036060019950975050505050505050f35b6101a9600480360360208110156102d757600080fd5b5035610b94565b6101a9600480360360208110156102f457600080fd5b5035610f23565b61036b6004803603602081101561031157600080fd5b81019060208101813564010000000081111561032c57600080fd5b82018360208201111561033e57600080fd5b8035906020019184600183028401116401000000008311171561036057600080fd5b509092509050611529565b60408051600160a060020a039092168252519081900360200190f35b6103a46004803603602081101561039d57600080fd5b5035611564565b604051808260048111156103b457fe5b60ff16815260200191505060405180910390f35b6103eb600480360360408110156103de57600080fd5b508035906020013561158d565b6040805160208082528351818301528351919283929083019185019080838360005b8381101561042557818101518382015260200161040d565b50505050905090810190601f1680156104525780820380516001836020036101000a031916815260200191505b509250505060405180910390f35b6101a9611641565b6104856004803603602081101561047e57600080fd5b50356116a9565b60408051600160a060020a0397881681529587166020870152938616858501526060850192909252909316608083015260a082019290925290519081900360c00190f35b61036b6117cd565b6104d96117dd565b604080519115158252519081900360200190f35b6104f56117ee565b60408051918252519081900360200190f35b6101a96004803603602081101561051d57600080fd5b81019060208101813564010000000081111561053857600080fd5b82018360208201111561054a57600080fd5b8035906020019184600183028401116401000000008311171561056c57600080fd5b5090925090506117f4565b6101a96004803603604081101561058d57600080fd5b508035906020013560ff1661184d565b6104d9600480360360208110156105b357600080fd5b5035611a3a565b6104f5611a6c565b6101a9600480360360208110156105d857600080fd5b5035600160a060020a0316611a72565b6101a9600480360360a08110156105fe57600080fd5b50600160a060020a038135811691602081013582169160408201359160608101359091169060800135611a8f565b60016002858154811061063b57fe5b600091825260209091206007909102015460ff16600481111561065a57fe5b146106af576040805160e560020a62461bcd02815260206004820152601360248201527f426574206973206e6f74206f6e20676f696e6700000000000000000000000000604482015290519081900360640190fd5b600284815481106106bc57fe5b60009182526020909120600790910201546101009004600160a060020a03163314806107105750600284815481106106f057fe5b6000918252602090912060079091020160010154600160a060020a031633145b61074e5760405160e560020a62461bcd02815260040180806020018281038252602c815260200180611fe9602c913960400191505060405180910390fd5b600183600281111561075c57fe5b14806107735750600283600281111561077157fe5b145b6107c7576040805160e560020a62461bcd02815260206004820152601d60248201527f50726f706f736564206f7574636f6d65206973206e6f742076616c6964000000604482015290519081900360640190fd5b60008481526003602090815260408220805460018101808355918452919092206107f391018484611f50565b50506002848154811061080257fe5b60009182526020909120600790910201546101009004600160a060020a031633141561086757826002858154811061083657fe5b60009182526020909120600660079092020101805460ff1916600183600281111561085d57fe5b02179055506108a4565b826002858154811061087557fe5b60009182526020909120600660079092020101805461ff00191661010083600281111561089e57fe5b02179055505b6000600285815481106108b357fe5b600091825260209091206006600790920201015460ff1660028111156108d557fe5b1415801561091a57506000600285815481106108ed57fe5b906000526020600020906007020160060160019054906101000a900460ff16600281111561091757fe5b14155b15610a75576002848154811061092c57fe5b906000526020600020906007020160060160019054906101000a900460ff16600281111561095657fe5b6002858154811061096357fe5b600091825260209091206006600790920201015460ff16600281111561098557fe5b1415610a3d5760016002858154811061099a57fe5b600091825260209091206006600790920201015460ff1660028111156109bc57fe5b14156109ff576003600285815481106109d157fe5b60009182526020909120600790910201805460ff191660018360048111156109f557fe5b0217905550610a38565b600460028581548110610a0e57fe5b60009182526020909120600790910201805460ff19166001836004811115610a3257fe5b02179055505b610a75565b6002808581548110610a4b57fe5b60009182526020909120600790910201805460ff19166001836004811115610a6f57fe5b02179055505b50505050565b600080600060028481548110610a8d57fe5b906000526020600020906007020160060160009054906101000a900460ff1660028581548110610ab957fe5b906000526020600020906007020160060160019054906101000a900460ff1660028681548110610ae557fe5b906000526020600020906007020160060160039054906101000a900460ff169250925092509193909250565b60028181548110610b1e57fe5b6000918252602090912060079091020180546001820154600283015460038401546004850154600586015460069096015460ff8087169850600160a060020a036101009788900481169896811697958116969495931693928282169290810482169162010000820481169163010000009004168b565b600060028281548110610ba357fe5b600091825260209091206007909102015460ff166004811115610bc257fe5b14610c17576040805160e560020a62461bcd02815260206004820152601760248201527f426574206973206e6f74206f70656e20616e796d6f7265000000000000000000604482015290519081900360640190fd5b33600160a060020a031660028281548110610c2e57fe5b6000918252602090912060016007909202010154600160a060020a031614610ca0576040805160e560020a62461bcd02815260206004820152601860248201527f596f752063616e6e6f74206a6f696e2074686973206265740000000000000000604482015290519081900360640190fd5b600060028281548110610caf57fe5b906000526020600020906007020160040160009054906101000a9004600160a060020a0316905060028281548110610ce357fe5b600091825260209182902060036007909202010154604080517fdd62ed3e00000000000000000000000000000000000000000000000000000000815233600482015230602482015290519192600160a060020a0385169263dd62ed3e926044808201939291829003018186803b158015610d5c57600080fd5b505afa158015610d70573d6000803e3d6000fd5b505050506040513d6020811015610d8657600080fd5b50511015610dde576040805160e560020a62461bcd02815260206004820152601460248201527f416c6c6f77616e636520697320746f6f206c6f77000000000000000000000000604482015290519081900360640190fd5b80600160a060020a03166323b872dd333060028681548110610dfc57fe5b9060005260206000209060070201600301546040518463ffffffff1660e060020a0281526004018084600160a060020a0316600160a060020a0316815260200183600160a060020a0316600160a060020a031681526020018281526020019350505050602060405180830381600087803b158015610e7957600080fd5b505af1158015610e8d573d6000803e3d6000fd5b505050506040513d6020811015610ea357600080fd5b5051610ee7576040805160e560020a62461bcd02815260206004820152600f6024820152600080516020612015833981519152604482015290519081900360640190fd5b600160028381548110610ef657fe5b60009182526020909120600790910201805460ff19166001836004811115610f1a57fe5b02179055505050565b60028181548110610f3057fe5b60009182526020909120600790910201546101009004600160a060020a0316331480610f84575060028181548110610f6457fe5b6000918252602090912060079091020160010154600160a060020a031633145b610fc25760405160e560020a62461bcd02815260040180806020018281038252602c815260200180611fe9602c913960400191505060405180910390fd5b600360028281548110610fd157fe5b600091825260209091206007909102015460ff166004811115610ff057fe5b1480611027575060046002828154811061100657fe5b600091825260209091206007909102015460ff16600481111561102557fe5b145b61107b576040805160e560020a62461bcd02815260206004820152601660248201527f426574206973206e6f7420776f6e206f72206c6f737400000000000000000000604482015290519081900360640190fd5b6002818154811061108857fe5b600091825260209091206007909102016006015462010000900460ff16156110fa576040805160e560020a62461bcd02815260206004820152601c60248201527f46756e6473207765726520616c72656164792077697468647261776e00000000604482015290519081900360640190fd5b600060036002838154811061110b57fe5b600091825260209091206007909102015460ff16600481111561112a57fe5b1415611163576002828154811061113d57fe5b60009182526020909120600790910201546101009004600160a060020a03169050611190565b6002828154811061117057fe5b6000918252602090912060016007909202010154600160a060020a031690505b60006002838154811061119f57fe5b6000918252602082206004600790920201015460028054600160a060020a0390921693506111ea91869081106111d157fe5b9060005260206000209060070201600301546002611e80565b905060006111fd60648304600454611e80565b905060016002868154811061120e57fe5b6000918252602082206006600790920201018054921515620100000262ff00001990931692909217909155600280548790811061124757fe5b906000526020600020906007020160060160039054906101000a900460ff16156113665761127a60648404600554611e80565b905083600160a060020a031663a9059cbb6002888154811061129857fe5b60009182526020808320600260079093020191909101546040805160e060020a63ffffffff8716028152600160a060020a039092166004830152602482018790525160448083019491928390030190829087803b1580156112f857600080fd5b505af115801561130c573d6000803e3d6000fd5b505050506040513d602081101561132257600080fd5b5051611366576040805160e560020a62461bcd02815260206004820152600f6024820152600080516020612015833981519152604482015290519081900360640190fd5b83600160a060020a031663a9059cbb86611389866113848787611eae565b611ec0565b6040518363ffffffff1660e060020a0281526004018083600160a060020a0316600160a060020a0316815260200182815260200192505050602060405180830381600087803b1580156113db57600080fd5b505af11580156113ef573d6000803e3d6000fd5b505050506040513d602081101561140557600080fd5b5051611449576040805160e560020a62461bcd02815260206004820152600f6024820152600080516020612015833981519152604482015290519081900360640190fd5b83600160a060020a031663a9059cbb6114606117cd565b846040518363ffffffff1660e060020a0281526004018083600160a060020a0316600160a060020a0316815260200182815260200192505050602060405180830381600087803b1580156114b357600080fd5b505af11580156114c7573d6000803e3d6000fd5b505050506040513d60208110156114dd57600080fd5b5051611521576040805160e560020a62461bcd02815260206004820152600f6024820152600080516020612015833981519152604482015290519081900360640190fd5b505050505050565b600060018383604051808383808284379190910194855250506040519283900360200190922054600160a060020a0316925050505b92915050565b60006002828154811061157357fe5b600091825260209091206007909102015460ff1692915050565b600360205281600052604060002081815481106115a657fe5b600091825260209182902001805460408051601f600260001961010060018716150201909416939093049283018590048502810185019091528181529450909250908301828280156116395780601f1061160e57610100808354040283529160200191611639565b820191906000526020600020905b81548152906001019060200180831161161c57829003601f168201915b505050505081565b6116496117dd565b61165257600080fd5b60008054604051600160a060020a03909116907f8be0079c531659141344cd1fd0a4f28419497f9722a3daafe3b4186f6b6457e0908390a36000805473ffffffffffffffffffffffffffffffffffffffff19169055565b600080600080600080600287815481106116bf57fe5b906000526020600020906007020160000160019054906101000a9004600160a060020a0316600288815481106116f157fe5b906000526020600020906007020160010160009054906101000a9004600160a060020a03166002898154811061172357fe5b906000526020600020906007020160020160009054906101000a9004600160a060020a031660028a8154811061175557fe5b90600052602060002090600702016003015460028b8154811061177457fe5b906000526020600020906007020160040160009054906101000a9004600160a060020a031660028c815481106117a657fe5b90600052602060002090600702016005015495509550955095509550955091939550919395565b600054600160a060020a03165b90565b600054600160a060020a0316331490565b60055481565b336001838360405180838380828437919091019485525050604051928390036020019092208054600160a060020a039490941673ffffffffffffffffffffffffffffffffffffffff199094169390931790925550505050565b6002828154811061185a57fe5b6000918252602090912060079091020160020154600160a060020a031633146118cd576040805160e560020a62461bcd02815260206004820152601b60248201527f53656e646572206d75737420626520746865206d65646961746f720000000000604482015290519081900360640190fd5b60028083815481106118db57fe5b600091825260209091206007909102015460ff1660048111156118fa57fe5b1461194f576040805160e560020a62461bcd02815260206004820152601360248201527f426574206973206e6f7420646973707574656400000000000000000000000000604482015290519081900360640190fd5b600381600481111561195d57fe5b14806119745750600481600481111561197257fe5b145b6119c8576040805160e560020a62461bcd02815260206004820152601b60248201527f4f7574636f6d65206d75737420626520776f6e206f72206c6f73740000000000604482015290519081900360640190fd5b80600283815481106119d657fe5b60009182526020909120600790910201805460ff191660018360048111156119fa57fe5b0217905550600160028381548110611a0e57fe5b906000526020600020906007020160060160036101000a81548160ff0219169083151502179055505050565b600060028281548110611a4957fe5b600091825260209091206007909102016006015462010000900460ff1692915050565b60045481565b611a7a6117dd565b611a8357600080fd5b611a8c81611ed5565b50565b604080517fdd62ed3e000000000000000000000000000000000000000000000000000000008152336004820152306024820152905183918591600160a060020a0384169163dd62ed3e916044808301926020929190829003018186803b158015611af857600080fd5b505afa158015611b0c573d6000803e3d6000fd5b505050506040513d6020811015611b2257600080fd5b50511015611b7a576040805160e560020a62461bcd02815260206004820152601460248201527f416c6c6f77616e636520697320746f6f206c6f77000000000000000000000000604482015290519081900360640190fd5b604080517f23b872dd000000000000000000000000000000000000000000000000000000008152336004820152306024820152604481018690529051600160a060020a038316916323b872dd9160648083019260209291908290030181600087803b158015611be857600080fd5b505af1158015611bfc573d6000803e3d6000fd5b505050506040513d6020811015611c1257600080fd5b5051611c56576040805160e560020a62461bcd02815260206004820152600f6024820152600080516020612015833981519152604482015290519081900360640190fd5b60006001600260405180610160016040528060006004811115611c7557fe5b8152336020820152600160a060020a038b811660408301528a81166060830152608082018a9052881660a082015260c0810187905260e00160008152602001600081526000602080830182905260409092018190528354600181810180875595835292909120835160079092020180549092839160ff191690836004811115611cfa57fe5b021790555060208201518154600160a060020a039182166101000274ffffffffffffffffffffffffffffffffffffffff001990911617825560408301516001808401805492841673ffffffffffffffffffffffffffffffffffffffff19938416179055606085015160028086018054928616928516929092179091556080860151600386015560a08601516004860180549190951693169290921790925560c0840151600584015560e08401516006840180549193909260ff19909216918490811115611dc357fe5b0217905550610100828101516006830180549192909161ff00191690836002811115611deb57fe5b02179055506101208201516006909101805461014090930151151563010000000263ff00000019921515620100000262ff000019909416939093179190911691909117905560408051929091038083529051909250600160a060020a0389169133917fd6e297146fc1bca4292f006ad0f263279c40eeee35450f23deb1090613b36f869181900360200190a350505050505050565b600082611e8f5750600061155e565b82820282848281611e9c57fe5b0414611ea757600080fd5b9392505050565b600082820183811015611ea757600080fd5b600082821115611ecf57600080fd5b50900390565b600160a060020a038116611ee857600080fd5b60008054604051600160a060020a03808516939216917f8be0079c531659141344cd1fd0a4f28419497f9722a3daafe3b4186f6b6457e091a36000805473ffffffffffffffffffffffffffffffffffffffff1916600160a060020a0392909216919091179055565b828054600181600116156101000203166002900490600052602060002090601f016020900481019282601f10611f915782800160ff19823516178555611fbe565b82800160010185558215611fbe579182015b82811115611fbe578235825591602001919060010190611fa3565b50611fca929150611fce565b5090565b6117da91905b80821115611fca5760008155600101611fd456fe53656e646572206d7573742062652074686520696e69746961746f72206f7220746865206f70706f6e656e745472616e73666572206661696c65640000000000000000000000000000000000a165627a7a723058201dfccbdad0d93197c53f8ff12f7491b23b3b558b88515023d013d7fefa16b1a70029",
  "source": "pragma solidity 0.5.8;\n\nimport \"openzeppelin-solidity/contracts/ownership/Ownable.sol\";\nimport \"openzeppelin-solidity/contracts/math/SafeMath.sol\";\nimport \"openzeppelin-solidity/contracts/token/ERC20/IERC20.sol\";\nimport \"./UsernameManager.sol\";\n\n\n/**\n * @title An amazing project called Beths\n * @dev This contract is the base of our project\n */\ncontract Beths is Ownable, UsernameManager {\n    enum Status { Open, OnGoing, Disputed, Won, Lost }\n    enum ProposedOutcome { Undefined, Won, Lost }\n\n    struct Bet {\n        Status status;\n        address initiator;\n        address opponent;\n        address mediator;\n        uint256 amount;\n        address currency;\n        uint256 deadline;\n        ProposedOutcome initiatorOutcome;\n        ProposedOutcome opponentOutcome;\n        bool areFundsWithdrawn;\n        bool hasBeenDisputed;\n    }\n\n    Bet[] public bets;\n\n    mapping (uint256 => string[]) public betsToProofs;\n\n    uint256 public ownerFee = 2;\n    uint256 public mediatorFee = 2;\n\n    event BetCreated(\n        uint256 betId,\n        address indexed initiator,\n        address indexed opponent\n    );\n\n    function createBet(\n        address opponent,\n        address mediator,\n        uint256 amount,\n        address currency,\n        uint256 deadline\n    ) external {\n        IERC20 token = IERC20(currency);\n\n        require(\n            token.allowance(msg.sender, address(this)) >= amount,\n            \"Allowance is too low\"\n        );\n\n        require(\n            token.transferFrom(msg.sender, address(this), amount),\n            \"Transfer failed\"\n        );\n\n        uint256 betId = bets.push(\n            Bet({\n                status: Status.Open,\n                initiator: msg.sender,\n                opponent: opponent,\n                mediator: mediator,\n                amount: amount,\n                currency: currency,\n                deadline: deadline,\n                initiatorOutcome: ProposedOutcome.Undefined,\n                opponentOutcome: ProposedOutcome.Undefined,\n                areFundsWithdrawn: false,\n                hasBeenDisputed: false\n            })\n        ) - 1;\n\n        emit BetCreated(betId, msg.sender, opponent);\n    }\n\n    function joinBet(uint256 betId) external {\n        require(\n            bets[betId].status == Status.Open,\n            \"Bet is not open anymore\"\n        );\n\n        require(\n            bets[betId].opponent == msg.sender,\n            \"You cannot join this bet\"\n        );\n\n        IERC20 token = IERC20(bets[betId].currency);\n\n        require(\n            token.allowance(msg.sender, address(this)) >= bets[betId].amount,\n            \"Allowance is too low\"\n        );\n\n        require(\n            token.transferFrom(msg.sender, address(this), bets[betId].amount),\n            \"Transfer failed\"\n        );\n\n        bets[betId].status = Status.OnGoing;\n    }\n\n    function proposeOutcome(\n        uint256 betId,\n        ProposedOutcome proposedOutcome,\n        string calldata proof\n    ) external {\n        require(\n            bets[betId].status == Status.OnGoing,\n            \"Bet is not on going\"\n        );\n\n        require(\n            msg.sender == bets[betId].initiator\n            || msg.sender == bets[betId].opponent,\n            \"Sender must be the initiator or the opponent\"\n        );\n\n        require(\n            proposedOutcome == ProposedOutcome.Won\n            || proposedOutcome == ProposedOutcome.Lost,\n            \"Proposed outcome is not valid\"\n        );\n\n        betsToProofs[betId].push(proof);\n\n        if (msg.sender == bets[betId].initiator) {\n            bets[betId].initiatorOutcome = proposedOutcome;\n        } else {\n            bets[betId].opponentOutcome = proposedOutcome;\n        }\n\n        if (bets[betId].initiatorOutcome != ProposedOutcome.Undefined\n            && bets[betId].opponentOutcome != ProposedOutcome.Undefined\n        ) {\n            if (bets[betId].initiatorOutcome == bets[betId].opponentOutcome) {\n                if (bets[betId].initiatorOutcome == ProposedOutcome.Won) {\n                    bets[betId].status = Status.Won;\n                } else {\n                    bets[betId].status = Status.Lost;\n                }\n            } else {\n                bets[betId].status = Status.Disputed;\n            }\n        }\n    }\n\n    /* solhint-disable-next-line function-max-lines */\n    function getFunds(uint256 betId) external {\n        require(\n            msg.sender == bets[betId].initiator\n            || msg.sender == bets[betId].opponent,\n            \"Sender must be the initiator or the opponent\"\n        );\n\n        require(\n            bets[betId].status == Status.Won\n            || bets[betId].status == Status.Lost,\n            \"Bet is not won or lost\"\n        );\n\n        require(\n            bets[betId].areFundsWithdrawn == false,\n            \"Funds were already withdrawn\"\n        );\n\n        address receiver;\n\n        if (bets[betId].status == Status.Won) {\n            receiver = bets[betId].initiator;\n        } else {\n            receiver = bets[betId].opponent;\n        }\n\n        IERC20 token = IERC20(bets[betId].currency);\n\n        uint256 totalAmount = SafeMath.mul(bets[betId].amount, 2);\n\n        uint256 ownerFees = SafeMath.mul(\n            totalAmount / 100,\n            ownerFee\n        );\n\n        bets[betId].areFundsWithdrawn = true;\n\n        uint256 mediatorFees = 0;\n\n        if (bets[betId].hasBeenDisputed) {\n            mediatorFees = SafeMath.mul(\n                totalAmount / 100,\n                mediatorFee\n            );\n\n            require(\n                token.transfer(bets[betId].mediator, mediatorFees),\n                \"Transfer failed\"\n            );\n        }\n\n        require(\n            token.transfer(receiver, SafeMath.sub(totalAmount, SafeMath.add(ownerFees, mediatorFees))),\n            \"Transfer failed\"\n        );\n\n        require(\n            token.transfer(owner(), ownerFees),\n            \"Transfer failed\"\n        );\n    }\n\n    function solveDispute(uint256 betId, Status outcome) external {\n        require(\n            msg.sender == bets[betId].mediator,\n            \"Sender must be the mediator\"\n        );\n\n        require(\n            bets[betId].status == Status.Disputed,\n            \"Bet is not disputed\"\n        );\n\n        require(\n            outcome == Status.Won\n            || outcome == Status.Lost,\n            \"Outcome must be won or lost\"\n        );\n\n        bets[betId].status = outcome;\n        bets[betId].hasBeenDisputed = true;\n    }\n\n    function getBetStatus(uint256 betId) external view returns (\n        Status status\n    ) {\n        return bets[betId].status;\n    }\n\n    function getBetInfo(uint256 betId) external view returns (\n        address,\n        address,\n        address,\n        uint256,\n        address,\n        uint256\n    ) {\n        return (\n            bets[betId].initiator,\n            bets[betId].opponent,\n            bets[betId].mediator,\n            bets[betId].amount,\n            bets[betId].currency,\n            bets[betId].deadline\n        );\n    }\n\n    function getBetOutcome(uint256 betId) external view returns (\n        ProposedOutcome,\n        ProposedOutcome,\n        bool\n    ) {\n        return (\n            bets[betId].initiatorOutcome,\n            bets[betId].opponentOutcome,\n            bets[betId].hasBeenDisputed\n        );\n    }\n\n    function areFundsWithdrawn(uint256 betId) external view returns (\n        bool\n    ) {\n        return bets[betId].areFundsWithdrawn;\n    }\n}\n",
  "sourcePath": "/Users/clement/Documents/Dev/Beths/Beths-smart-contracts/contracts/Beths.sol",
  "compiler": {
    "name": "solc",
    "version": "0.5.8+commit.23d335f2.Emscripten.clang"
  },
  "schemaVersion": "3.0.9",
  "updatedAt": "2019-05-12T02:13:57.563Z",
  "devdoc": {
    "details": "This contract is the base of our project",
    "methods": {
      "isOwner()": {
        "return": "true if `msg.sender` is the owner of the contract."
      },
      "owner()": {
        "return": "the address of the owner."
      },
      "renounceOwnership()": {
        "details": "Allows the current owner to relinquish control of the contract. It will not be possible to call the functions with the `onlyOwner` modifier anymore."
      },
      "transferOwnership(address)": {
        "details": "Allows the current owner to transfer control of the contract to a newOwner.",
        "params": {
          "newOwner": "The address to transfer ownership to."
        }
      }
    },
    "title": "An amazing project called Beths"
  },
  "userdoc": {
    "methods": {
      "renounceOwnership()": {
        "notice": "Renouncing ownership will leave the contract without an owner, thereby removing any functionality that is only available to the owner."
      }
    }
  }
}